:100000000C940A090C9426090C9426090C942609D0
:100010000C9426090C9426090C9426090C942609A4
:100020000C9426090C9426090C94FC0F0C945B107C
:100030000C9426090C9426090C9426090C94260984
:100040000C9426090C9426090C9426090C94260974
:100050000C9426090C9426090C9426090C94260964
:100060000C9426090C9426090C9426090C94260954
:100070000C9426090C9426090C9426090C94260944
:100080000C9426090C9426090C9426090C94260934
:100090000C9426090C9426090C9426090C94260924
:1000A0000C9426090C9426090C94260900E0012AD8
:1000B000E24CE3E749E62C28E4003135312E2D00EF
:1000C0000000005052514F65E11D1B0619052F30ED
:1000D0001110363738E52B041607090A00000B0DFE
:1000E0000E0F333426141A0815172F301C180C1253
:1000F0001327291E1F202122363723242526272DAA
:100100000000000000E1000000000000000000000E
:1001100000000000000000494B4E4A4D81000000E5
:100120000000000037231E3833207F2F30262700A1
:1001300000002E5756555422800000000000000099
:10014000363124444500013A3B3C3D3E00003F40EF
:100150004142434600000000000000000000000093
:10016000000000000000000000000000000000008F
:10017000000000000000000000000000000000007F
:10018000000000000000000000000000000000006F
:10019000000000000000000000000000000000005F
:1003F000000000000000100F450F100F100F100F2D
:10040000100F100F100F100F100F100F100F000013
:10041000100F490F490F100F490F00000000000096
:100420000000100F100F100F100F100F4E0F100FB5
:10043000100F100F100F100F100F100F100F100FC4
:10044000100F100F100F4E0F100F100F100F100F76
:10045000100F100F00000000100F100F100F100FE2
:10046000100F100F490F100F100F100F100F100F5B
:10047000490F490F100F100F100F100F100F490FD9
:10048000100F100F100F100F100F100F490F490F02
:10049000100F100F100F100F100F100F0000280F6B
:1004A0000000280F280F100F280F280F0000280F1A
:1004B000280F0000280F00000000000000000000CE
:1004C00000000000000000000000100F100F100FCF
:1004D000100F100F100F00000000000000000000BF
:1004E00000000000490F490F490F490F490F490FFC
:1004F000100F490F490F490F490F0000000000007D
:10050000100F100F100F100F100F490F100F0000D9
:10051000000000000000000000000000490F490F2B
:10052000490F100F100F0000470F100F100F100F82
:10053000100F100F00000000100F100F100F100F01
:10054000100F100F0000000000000000000000006D
:10055000000000000000000000000000000000009B
:10056000000000000000000000000000000000008B
:10057000000000000000000000000000000000007B
:10058000000000000000000000000000000000006B
:100A8000000000000000100F470F100F100F100F94
:100A9000100F100F100F100F100F100F100F00007D
:100AA000100F490F490F100F490F00000000000000
:100AB0000000100F100F100F100F100F4E0F100F1F
:100AC000100F100F100F100F100F100F100F100F2E
:100AD000100F100F100F4E0F100F100F100F100FE0
:100AE000100F100F00000000100F100F100F100F4C
:100AF000100F100F490F100F100F100F100F100FC5
:100B0000490F490F100F100F100F100F100F490F42
:100B1000100F100F100F100F100F100F490F490F6B
:100B2000100F100F100F100F100F100F0000280FD4
:100B30000000280F280F100F280F280F0000280F83
:100B4000280F0000280F0000000000000000000037
:100B500000000000000000000000100F100F100F38
:100B6000100F100F100F0000000000000000000028
:100B700000000000490F490F490F490F490F490F65
:100B8000100F490F490F490F490F000000000000E6
:100B9000100F100F100F100F100F490F100F000043
:100BA000000000000000000000000000490F490F95
:100BB000490F100F100F00000000100F100F100F42
:100BC000100F100F00000000100F100F100F100F6B
:100BD000100F100F000000000000000000000000D7
:100BE0000000000000000000000000000000000005
:100BF00000000000000000000000000000000000F5
:100C000000000000000000000000000000000000E4
:100C100000000000000000000000000000000000D4
:1011100000000000000100004B1112000200005D01
:101120001122002200007F113F002100006F1109F1
:1011300000030000BE110401030904C211180203D8
:101140000904DC1136000001C10600120100020092
:10115000000020501D286000010102000109022248
:1011600000010100C032090400000103010100096F
:101170002111010001223F0007058303080001053A
:10118000010906A10175019508050719E029E71570
:1011900000250181029501750881039505750105FA
:1011A00008190129059102950175039103950675AA
:1011B00008150025680507190029688100C0040387
:1011C0000904180375006E00730070006500630069
:1011D0006900660069006500640000003603450090
:1011E000720067006F0044006F0078002000650007
:1011F000720067006F006E006F006D006900630091
:1012000020006B006500790062006F0061007200D1
:101210006400000011241FBECFEFDAE0DEBFCDBFB7
:1012200011E0A0E0B1E0EAEAF3E202C005900D921D
:10123000AA31B107D9F712E0AAE1B1E001C01D92CD
:10124000A936B107E1F748D00C94D3110C940000F3
:101250003091650220913A0290913B0280916802A0
:10126000332391F0ECE12E9FF001112428EA929FA4
:1012700090011124E20FF31F90E0880F991FE80FEF
:10128000F91FEC50FC4F11C0ECE12E9FF00111242E
:1012900028EA929F90011124E20FF31F90E0880F3B
:1012A000991FE80FF91FEC57F54F85919491E82F9E
:1012B000F92F309709F009950895E0911A01E81780
:1012C00048F0F0E0E81BF109EE0FFF1FE45CFD4F72
:1012D0008081089580E008950F931F93CF93DF934B
:1012E0005DD18CE090E0909389008093880090938A
:1012F0008B0080938A0090938D0080938C00259AB8
:10130000269A279A25D63BD68823E9F38FE790E0E3
:1013100090938900809388002FE732E440E12150C8
:1013200030404040E1F700C0000090938B00809374
:101330008A002FE732E440E1215030404040E1F79D
:1013400000C0000090938D0080938C002FE732E462
:1013500040E1215030404040E1F700C000002598B6
:1013600026982798909389008093880090938B000B
:1013700080938A0090938D0080938C00809102016D
:1013800090910301209100013091010130930301FC
:101390002093020190930101809300010BD11092E0
:1013A000E50178C0109266026BC0C02FD0E0E091DA
:1013B0000001F0910101812F90E09C01220F331F69
:1013C000C90143E0880F991F4A95E1F7821B930BEF
:1013D0008C0F9D1FE80FF91F408140936502E0913B
:1013E0000201F0910301812F90E09C01220F331F35
:1013F000C901A3E0880F991FAA95E1F7821B930BFF
:101400008C0F9D1FE80FF91F80818093640248179D
:1014100091F14423B1F080E050DF80933B02212F13
:1014200030E0220F331FF90173E0EE0FFF1F7A95B2
:10143000E1F7E21BF30BEC0FFD1FEA51FE4F808337
:1014400013C0812F90E0880F991FFC0153E0EE0F2D
:10145000FF1F5A95E1F7E81BF90BEC0FFD1FEA514E
:10146000FE4F808180933B0210933A020093680202
:1014700010926702EDDE809166028F5F80936602B4
:10148000009166021091E5010E3008F48ECF1F5FC7
:101490001093E5018091E501863008F483CF72D581
:1014A0008FE19EE40197F1F700C000008091E10117
:1014B00080FF02C0259A01C025988091E10181FF3B
:1014C00002C0269A01C026988091E10182FF02C0E5
:1014D000279A01C027988091E1018091E1014ECFC8
:1014E000982FE5E0F1E020E030E0822F8F5F2F5F62
:1014F0003F4F4191442391F42C5F3E4F41E0F9016D
:101500004083E0911A01EF5FE0931A01F0E0EE0FE3
:10151000FF1FE45CFD4F90838183089523313105E3
:1015200021F780E00895CF93DF9320911A0191E095
:10153000C82FD0E0CC5FDE4F2AC0E92FF0E0EE0FDD
:10154000FF1FE45CFD4F3181381701F512C0A92F50
:10155000B0E0FD01EE0FFF1FE45CFD4FAA0FBB1FC3
:10156000A25CBD4F3C91308311963C911197318321
:101570009F5F921760F3E22FF0E0EE0FFF1FE45C35
:10158000FD4F108211821882922F21509F5F2917E0
:10159000A0F620931A01DF91CF910895C1D088233E
:1015A00029F41AD0882321F082E0089581E008957B
:1015B00080E00895CF93DF93EC017BD1882331F451
:1015C000CE0135D0882321F082E003C081E001C044
:1015D00080E0DF91CF9108951F9394D380E4B3D33B
:1015E000182F882301F580E0AED380E8ACD38FEFCD
:1015F000AAD3A1D387D380E4A6D3182F882399F444
:101600008CE0A1D380E89FD38FEF9DD394D37AD37E
:1016100080E499D3182F882331F484E194D38FEF99
:1016200092D38FEF90D387D3812F1F9108959F92EC
:10163000AF92BF92CF92DF92EF92FF920F931F93E0
:10164000DF93CF930F92CDB7DEB77C01C5DF982E25
:10165000882371F0F70186E01082118212821382D2
:1016600014821582168281503E968823A9F74AC0BB
:1016700000E010E081E0C82ED12C5E010894A11C8E
:10168000B11C40D380E45FD382E15DD3C601002E5C
:1016900002C0880F991F0A94E2F7809554D34BD368
:1016A00031D380E450D383E14ED32CD381E44BD3A8
:1016B000C50169D340D3498150E0F701E00FF11F24
:1016C00025E030E0CA01022E02C0959587950A9464
:1016D000E2F761E080FD60E06083215030403E969B
:1016E0008FEF2F3F380771F70F5F1F4F073011053E
:1016F00009F0C7CF07D380E426D382E124D38FEF4C
:1017000022D319D3892D0F90CF91DF911F910F9183
:10171000FF90EF90DF90CF90BF90AF909F90089593
:10172000E1E6F0E080E88083108256985E98249885
:101730002C9825982698279889EA8093800089E03C
:1017400080938100D6D23F9885E08A95F1F700001A
:10175000579885E08A95F1F70000549885E08A95BE
:10176000F1F70000559885E08A95F1F700006E9832
:1017700085E08A95F1F70000479A85E08A95F1F7B0
:1017800000005F9A85E08A95F1F700005C9A85E099
:101790008A95F1F700005D9A85E08A95F1F70000DF
:1017A000769A85E08A95F1F70000879885E08A951A
:1017B000F1F70000869885E08A95F1F7000085989A
:1017C00085E08A95F1F70000849885E08A95F1F725
:1017D0000000819885E08A95F1F70000809885E007
:1017E0008A95F1F70000209885E08A95F1F70000CE
:1017F000219885E08A95F1F70000229885E08A9586
:10180000F1F70000239885E08A95F1F700005298DF
:1018100085E08A95F1F70000539885E08A95F1F705
:1018200000003E9885E08A95F1F700008F9A85E0E8
:101830008A95F1F700008E9A85E08A95F1F700000D
:101840008D9A85E08A95F1F700008C9A85E08A955B
:10185000F1F70000899A85E08A95F1F70000889AEF
:1018600085E08A95F1F70000289885E08A95F1F7E0
:101870000000299885E08A95F1F700002A9885E014
:101880008A95F1F700002B9885E08A95F1F7000022
:101890005A9885E08A95F1F700005B9885E08A9573
:1018A000F1F70000469885E08A95F1F7000080E0A6
:1018B00008950F931F93CF93DF93FC01209A65E067
:1018C0006A95F1F700008FB18095881F8827881FDF
:1018D0008783AF01425F5F4F81E07E9980E0DA014C
:1018E00017968C9317979F01245E3F4F81E07D9957
:1018F00080E0D90117968C931797CF018A9661E003
:101900007C9960E0DC0117966C931797EF01E896DD
:1019100061E0799960E06F838F010A5B1F4F61E09E
:10192000789960E0D80117966C9317972098B5E0E6
:10193000BA95F1F70000219A65E06A95F1F7000089
:101940006FB16095661F6627661F608761E07E99AC
:1019500060E0DA0118966C93189761E07D9960E079
:10196000D90118966C93189761E07C9960E0DC01CE
:1019700018966C93189761E0799960E0688761E048
:10198000789960E0D80118966C9318972198B5E083
:10199000BA95F1F70000229A65E06A95F1F7000028
:1019A0006FB16095661F6627661F618761E07E994B
:1019B00060E0DA0119966C93199761E07D9960E017
:1019C000D90119966C93199761E07C9960E0DC016C
:1019D00019966C93199761E0799960E0698761E0E5
:1019E000789960E0D80119966C9319972298B5E020
:1019F000BA95F1F70000239A65E06A95F1F70000C7
:101A00006FB16095661F6627661F628761E07E99E9
:101A100060E0DA011A966C931A9761E07D9960E0B4
:101A2000D9011A966C931A9761E07C9960E0DC0109
:101A30001A966C931A9761E0799960E06A8761E081
:101A4000789960E0D8011A966C931A972398B5E0BC
:101A5000BA95F1F70000529A65E06A95F1F7000037
:101A60006FB16095661F6627661F638761E07E9988
:101A700060E0DA011B966C931B9761E07D9960E052
:101A8000D9011B966C931B9761E07C9960E0DC01A7
:101A90001B966C931B9761E0799960E06B8761E01E
:101AA000789960E0D8011B966C931B975298B5E02B
:101AB000BA95F1F70000539A65E06A95F1F70000D6
:101AC0006FB16095661F6627661F648761E07E9927
:101AD00060E0DA011C966C931C9761E07D9960E0F0
:101AE000D9011C966C931C9761E07C9960E0DC0145
:101AF0001C966C931C9761E0799960E06C8761E0BB
:101B0000789960E0D8011C966C931C975398B5E0C7
:101B1000BA95F1F700003E9A65E06A95F1F700008A
:101B20006FB16095661F6627661F658761E07E99C5
:101B300060E0DA011D966C931D9741E07D9940E0CD
:101B4000F901458721E07C9920E0DC011D962C936A
:101B50001D9781E0799980E08D8781E0789980E018
:101B6000F80185873E98F5E0FA95F1F7000080E0EE
:101B7000DF91CF911F910F910895662309F473C0EF
:101B8000633E61F1643E40F4613EC1F0623EF0F4B8
:101B9000603E09F04DC00AC0653E81F1653E30F1FE
:101BA000663EA1F1673E09F043C038C09091DA016A
:101BB000882311F0916039C09E7F37C09091DA017F
:101BC000882311F0926031C09D7F2FC09091DA017F
:101BD000882311F0946029C09B7F27C09091DA017F
:101BE000882311F0986021C0977F1FC09091DA017F
:101BF000882311F0906119C09F7E17C09091DA017F
:101C0000882311F0906211C09F7D0FC09091DA017E
:101C1000882311F0906409C09F7B07C09091DA017E
:101C2000882311F0906801C09F779093DA0108959E
:101C3000EBEDF1E020E030E09081882339F099234A
:101C400061F425523E4FF90160830895961729F4F7
:101C500025523E4FF901108208952F5F3F4F319674
:101C60002630310549F70895833EF1F0843E38F47B
:101C7000813E91F0823EA0F4803E51F509C0853E40
:101C8000D9F0853EA8F0863ED9F0873E09F51CC004
:101C90009091DA0190FD29C09091DA0191FD25C063
:101CA0009091DA0192FD21C09091DA0193FD1DC05F
:101CB0009091DA0194FD19C09091DA0195FD15C05B
:101CC0009091DA0196FD11C09091DA0197FD0DC057
:101CD00090E0E92FF0E0E552FE4F2081281739F01F
:101CE0009F5F9630B1F780E0089581E0089581E02C
:101CF0000895E9EBF0E080818C7F808388E4809315
:101D0000B800089584EA8093BC008091BC0087FFEE
:101D1000FCCF8091B900887F883049F08091B9006C
:101D2000887F803131F08091B900887F089580E00C
:101D3000089580E0089584E98093BC008091BC0000
:101D400084FDFCCF08958093BB0084E88093BC00A1
:101D50008091BC0087FFFCCF8091B900887F8831DB
:101D600071F08091B900887F883249F08091B90084
:101D7000887F803431F08091B900887F089580E0B9
:101D8000089580E0089524EC2093BC002091BC00CD
:101D900027FFFCCF2091BB00FC0120838091B9007C
:101DA000887F803521F08091B900887F089580E098
:101DB0000895CF93DF93C82FD0E0CC0FDD1FCD5314
:101DC000DE4F8881B0DB19821882DF91CF910895B0
:101DD0001F93CF93DF93E0913B0294E5E99FF001DD
:101DE000112420913A029EE0299F90011124E20FD4
:101DF000F31F90916802E90FF11DE455FF4F149114
:101E0000C82FD0E0CC0FDD1FCD53DE4F88818BDB98
:101E1000812F66DB88831982DF91CF911F9108950E
:101E2000E0913B0284E5E89FF001112490913A0291
:101E30008EE0989FC0011124E80FF91F809168027D
:101E4000E80FF11DE455FF4F64918091650295CE36
:101E5000809167028F5F809367022FDA80933B0245
:101E60009091680220913A0230E0220F331FF9016D
:101E700043E0EE0FFF1F4A95E1F7E21BF30BE90F7A
:101E8000F11DEA51FE4F8083E3C981E0A1CF81E0DB
:101E900090CF8091650261EE70DEC2CFE0913B028F
:101EA00084E5E89FF001112490913A028EE0989F1A
:101EB000C0011124E80FF91F80916802E80FF11D9D
:101EC000E455FF4F649180916502882329F4909135
:101ED000D90191509093D90150DE8091D901813080
:101EE00041F580916502882321F181EEBDDE80936A
:101EF000D80185EEB9DE8093D70180E061EE3DDE4A
:101F000080E065EE3ADE81E069E337DE3BD080E0D9
:101F100069E333DE37D08091D801882319F081E05E
:101F200061EE2BDE8091D701882319F081E065EE08
:101F300024DE80916502882329F08091D9018F5F8A
:101F40008093D90108958091E80080FFFCCF089527
:101F500081E08093D70080EA8093D80082E189BD38
:101F600009B400FEFDCF80E98093D8001092E00014
:101F70001092E2018CE08093E200789408958091C1
:101F8000E20108958091E201882391F18FB7F894DE
:101F900093E09093E9009091E4009E5C23E03091FF
:101FA000E80035FD0EC08FBF8091E201882301F16A
:101FB0008091E4008917F1F08FB7F8942093E9003D
:101FC000EECF9091DA019093F1001092F100EBEDD9
:101FD000F1E091919093F10091E0E13EF907C9F7AA
:101FE0009AE39093E8001092E3018FBF80E0089598
:101FF0008FEF08958FEF08951F920F920FB60F92F3
:1020000011242F938F939F93EF93FF938091E1007F
:102010001092E10083FF0FC01092E90091E09093CD
:10202000EB001092EC0092E29093ED0098E0909318
:10203000F0001092E20182FF34C08091E201882317
:1020400081F120911801222361F18091E4018F5FD9
:102050008093E40190E083709070009711F583E025
:102060008093E9008091E80085FF1BC08091E30127
:102070008F5F8093E3018217A1F41092E3018091B6
:10208000DA018093F1001092F100EBEDF1E0819123
:102090008093F10081E0E13EF807C9F78AE380937D
:1020A000E800FF91EF919F918F912F910F900FBEBC
:1020B0000F901F9018951F920F920FB60F92112438
:1020C000CF92DF92EF92FF920F931F932F933F9344
:1020D0004F935F936F937F938F939F93AF93BF9330
:1020E000EF93FF93DF93CF930F92CDB7DEB71092AC
:1020F000E9008091E80083FF39C12091F10030911F
:10210000F1008091F100C82EDD244091F100942F60
:1021100080E0C82AD92A0091F10010E04091F10036
:10212000942F80E0082B192B6091F100A091F10011
:1021300082EF8093E800363009F059C08BE191E1DD
:102140009C0125503040FC013797459154914C1526
:102150005D05F9F4F9014591549140175107C9F40F
:102160002E5F3F4FF901859194912E5F3F4FF9010A
:102170002491462F50E07A2F60E0462B572B4F3F9B
:10218000510519F010F04FEF50E0421750F4242F92
:1021900008C00796295F3F4FF1E18C349F0799F6FD
:1021A000E5C0AEEF4091E80050E0BA016570707094
:1021B00061157105B9F342FDDCC0322F213208F000
:1021C00030E2AC01632F07C0FA014F5F5F4FE4912B
:1021D000E093F10061506623B9F7830F911D231B33
:1021E000A093E8002223F1F63032E1F2C2C035308C
:1021F00049F48EEF8093E800A6DE8C2D80688093F2
:10220000E300B7C0393031F5222309F069C0C0922C
:10221000E2018EEF8093E80041E085E491E1409394
:10222000E900FC010196E491E093EB00EE2369F0F4
:102230009C012F5F3F4FFC0184918093EC00C9010A
:102240000196F90124912093ED004F5F453039F755
:102250008EE141C0383039F4203809F041C073DED6
:102260008091E20161C03323A9F429836CDE2981C6
:10227000223851F40093E9009091EB0081E095FF42
:1022800080E01092E90001C080E08093F10010929C
:10229000F10068C0313011F0333011F5223001F512
:1022A000C114D104E9F4402F4F77842F815084303A
:1022B000B8F48EEF8093E8004093E900333009F4DE
:1022C00055C089E18093EB0081E090E002C0880F67
:1022D000991F4A95E2F78093EA001092EA0049C0FC
:1022E0000115110509F042C0213A09F5313089F490
:1022F0002ADE8091DA018093F1001092F100EBED7B
:10230000F1E081918093F10021E0E13EF207C9F70D
:1023100029C0323021F417DE8091180105C0333016
:1023200029F511DE809119018093F1001BC0213243
:10233000E9F4393061F48091E80082FFFCCF8091AC
:10234000F1008093E1018BEF8093E8000BC03A30FD
:1023500029F4D09218011092E30104C03B3031F40B
:10236000C09219018EEF8093E80003C081E2809350
:10237000EB000F90CF91DF91FF91EF91BF91AF9163
:102380009F918F917F916F915F914F913F912F918D
:102390001F910F91FF90EF90DF90CF900F900FBEA5
:0A23A0000F901F901895F894FFCFDE
:1023AA001B016F0101000000000000000000000096
:0A23BA0000000000000000007D019B
:00000001FF
